:020000040800F2
:1000000028190020B1A1000809A000080BA00008D1
:100010000DA000080FA0000811A0000800000000BB
:1000200000000000000000000000000013A0000815
:1000300015A000080000000017A0000819A0000883
:10004000D3A10008D7A10008DBA1000849A000083F
:10005000DFA10008E3A1000843A00008E7A1000811
:10006000EBA10008EFA100083DA00008F3A10008E3
:10007000F7A10008FBA10008FFA1000803A20008E7
:1000800007A200080BA200080FA2000813A2000894
:1000900017A200081BA200081FA2000823A2000844
:1000A00027A200082BA200082FA2000833A20008F4
:1000B00037A200083BA200083FA2000843A20008A4
:1000C00047A200084BA200084FA2000853A2000854
:1000D0001DA0000823A0000857A200085BA200088A
:1000E0005FA2000863A2000867A200086BA20008D4
:1000F00031A0000835A0000839A000086FA2000850
:1001000073A2000877A200087BA200087FA2000863
:1001100083A2000887A200088BA200088FA2000813
:1001200093A2000897A200089BA200089FA20008C3
:10013000A3A20008A7A20008ABA2000878B58FB060
:1001400002A80FF25411DFF8344A342201F006F805
:100150000FF611200190009469460FF6F11001F09E
:100160007DF80121022001F062F9DFF8142A002154
:10017000082001F0DAF902A801F060FA08B101F0F4
:1001800048FC00240A25DFF8FC69002026F814004A
:100190000A2105FB04F030440A3001F05BFC641CCA
:1001A000042CF2DD0FF215620021202001F0BDF9D0
:1001B0000FF211720021402001F0B7F90FF2C54291
:1001C0000021802001F0B1F90FF2896200214FF483
:1001D000807001F0AAF90FF2097200214FF400704B
:1001E00001F0A3F90FF2A57200214FF4806001F035
:1001F0009CF90FF2B97200214FF4006001F095F9FB
:100200000FF2CD7200214FF4805001F08EF90FF201
:10021000E57200214FF4005001F087F90FF2F572FA
:1002200000214FF4804001F080F90FF631020021E7
:100230004FF4004001F079F90FF63D0200214FF430
:10024000803001F072F90FF6350200214FF40030D2
:1002500001F06BF90FF6790200214FF4802001F0D4
:1002600064F90FF6D10200214FF4002001F05DF98E
:10027000DFF814490FF2FD33002204F18101002060
:1002800001F0ECFD0FF2F533002204F182010020B1
:1002900001F0E4FD10B070BD00000000000000009F
:1002A0000000000000000000000000004400080002
:1002B000400502011C3AFB00F4010000FFFFFFFFB4
:1002C0004801010000200000000000002DE9FF416E
:1002D0000446DFF8B4586078DFF8B078DFF8B0880B
:1002E000052805F1800605D03E2817D0FF2800F02C
:1002F0008480AFE0A088E98A8842FAD10020E882B1
:100300003070C8F8000038600FF6341001F06CFE51
:1003100000218DF800100120694691E0E078012865
:100320003ED0032802D00C281FD093E00FF63810DF
:1003300001F05AFEE07900EE900AB7EE040AF8EEFA
:10034000600A60EE800AC8ED000A0DF10201E07952
:1003500000EE900A0120F8EE600A8DF8020020EE0F
:10036000800A87ED000A02206AE00FF6281001F0EB
:100370003BFEE88A0DF1030201A901F09CFE60B981
:100380000FF62C1001F030FE9DF803209DF80410AC
:100390000FF6301001F028FE5CE00FF6441029E063
:1003A00000F05CF888ED000A00F058F887ED000ACC
:1003B000707801F079FDB4F805100FF6401001F0E7
:1003C00013FE307804280CBF0620052030706946E3
:1003D00001208DF8000002F07BFBB4F80500E882F4
:1003E000B4F8050002F02FFD00280CBF0FF65010E6
:1003F0000FF6701001F0F8FD2CE0B4F80300001FB8
:1004000021D040F2FD31401A11D0401E02D0C01F51
:1004100007D01FE001208DF801000DF1010104203B
:100420000EE0D4F80700029002A9032008E0E0796A
:100430008DF806000520217A8DF807100DF10601D0
:1004400002F046FB06E0012002F06CFDB0780A21C4
:1004500001F079FD012004B0BDE8F081E07B00EE01
:10046000100AB8EE400A70472DE9F8410FF6101057
:10047000DFF820470088DFF82057DFF8206789B0D1
:10048000ADF81A0001F0C4FD2078297850EA010285
:1004900010D1DFF80C773A460621002002F05CFD0F
:1004A00000F0BDF800F0C8F801460622384600F01A
:1004B00045FE2DE00129DFF8EC760BD1787940F08C
:1004C000C00078713A4606212E2002F045FD00F06A
:1004D000A6F81DE001281BD1DFF8CC0607904CF2EE
:1004E00022110891062207A9384600F027FEC120F4
:1004F000307207AA222070720621AA20B072BB2097
:10050000F072CC203073DD2070732E2002F024FDB9
:100510000FF6084700F07EF80FF6104800F075F867
:1005200000F078F800F071F8DFF88006017801201B
:1005300002F039FDDFF8781606F1110002F05EFDD9
:1005400002F09EFB0DF1160006A90190009105AB8B
:1005500007220021012002F03BFE06F1100002F00C
:100560002DFF06F111010091431EBDF81810BDF8D2
:100570001400DBB2002202F043FC0DF11A000090DF
:100580000223BDF81610BDF81400DFF8FC65002248
:1005900002F036FC02220221002001F0BFFD03F030
:1005A00038F8DFF810060078307002F0A8FDDFF8A8
:1005B000080601787170DFF804160878DFF8001675
:1005C000F070082070711020B071DFF8F805027823
:1005D000DFF8F4053271029208220B68B3600092D2
:1005E000039300230078F278B0702D7821780D43C2
:1005F000102101910495717802F09AFDB07808B14C
:1006000002F03FFE0AB0BDE8F0814246102108200A
:1006100002F0A2BC3A461021182002F09DBC787965
:10062000307238797072F878B072B878F072787881
:10063000307338787073704780B5DFF890150A68AA
:1006400012F1010F0ED0DFF888054B6802701B0A0B
:10065000120A427049688170C370190A01711B0C3B
:10066000437102BD002003F065F808B90FF6A4201D
:1006700002BD00000021012000F064BF012002F053
:100680005BBC00002DE9F841DFF84855DFF80C4568
:100690002878DFF81C75FF26012887B010D10FF2EB
:1006A000E460016839604168796000F080F80120F9
:1006B000A0700D218320E07021706670002010E092
:1006C000022811D106220FF2C461384600F036FD2F
:1006D00000F06DF80D20207066700120A0700020E1
:1006E000E0706060A060A081FFF7BEFE2878DFF8B0
:1006F000E864DFF89454012806D103F05CF803F0B5
:1007000046F90020288313E0022815D103F072F97E
:1007100003F0FCF903F068FA0220687601202876DD
:100720000D20A876022028761820E8760320287667
:1007300080203080A020708005F18008378876887E
:1007400098F8010001F0B0FB012088F8000004F1E6
:10075000100002F033FE002106910591C0B2297EFF
:10076000039105F1190204F1100101900492029124
:1007700000200090DFF82014DFF818240B781078A0
:10078000034332463946002002F070FC21460E2019
:1007900002F064FD40B998F80100DFF8401408B099
:1007A000BDE8F04101F0CFBB08B0BDE8F081092001
:1007B0002074394604F1110002F020BC18B5DFF8AE
:1007C0002004007887B040B902F03EFC002814BF36
:1007D0000FF2E4500FF2BC502CE0012837D1DFF8C3
:1007E000BC4304F1100002F0E9FD0022DFF8981389
:1007F00006920592009201F11903097EDFF8942315
:100800000391C0B204F11001029104930190DFF84A
:10081000881310780B78DFF8CC13DFF8CC430A8804
:1008200021880343DFF8C403007802F01FFC30B9CD
:100830000FF2A45008B0BDE8104001F0D5BB08B0DD
:10084000BDE8104001460FF2B45001F0CDBB08B036
:1008500010BD000030B585B001A80FF2C451DFF81B
:100860009053102200F07AFC28888DF81000000ABE
:100870008DF8110002F0CDFED649C2480A7800EB8F
:100880004203991FDB48DC4B00781B7801280246A5
:1008900004D10091294602F00AFA06E0022805D1A7
:1008A0000091012201A902F002FA0446E4B2002CF0
:1008B0000CBF0FF27C500FF2985001F095FB05B081
:1008C00030BD0000B5480D210170FF2141700121AC
:1008D00081700021C170416081608181C4E50000A8
:1008E000F8B58AB006A80FF28051C44D102200F06E
:1008F00035FCC34AA34910882E78DFF808E39EF838
:1009000000E08DF824000A23000A8DF82500BE4877
:10091000007813FB00F30B4401EB400003EB4607A8
:10092000BA49BB4B0978BB4E1B883678A7F1160530
:10093000B94F3F7801290DD1059501240A2504946A
:100940000395CDF808E00197009630F8060C02F008
:10095000FDF90FE002290ED101220A240595049227
:100960000394CDF808E00197009606AA30F8060C2B
:1009700002F0ECF90446E4B2002C0CBF0FF2F84090
:100980000FF21C5001F030FB0BB0F0BD80B57E497A
:10099000C88A02F04DFCBDE8024000280CBF0FF2EF
:1009A00020500FF2445001F01FBB000080B59B485F
:1009B000754A0178D08A02F0D6FCBDE802400028D2
:1009C0000CBF0FF248500FF2705001F00DBB000049
:1009D00080B593486C4A0168D08A02F0DCFBBDE820
:1009E000024000280CBF0FF278500FF2985001F02F
:1009F000FBBA000080B56F49087802F080FBBDE8C3
:100A0000024000280CBF0FF298500FF2B85001F0CE
:100A1000EBBA000030B58348694A01786948136829
:100A2000694D85B010220491072401786348019232
:100A3000009402910278604C287821780393002377
:100A400002F076FB05B0BDE8304000280CBF0FF285
:100A500090500FF2B85001F0C7BA000080B502F014
:100A600022FCBDE8024000280CBF0FF2C8500FF274
:100A7000EC5001F0B9BA000001F0CABA7CB5434E9F
:100A8000434D30684FF4FA74009403F0E7F800F037
:100A90001BF803F007F984B2286803F0DFF800F0D0
:100AA00013F803F0FFF881B23748C08A00232246CA
:100AB00003F015F9BDE8764000280CBF0FF2BC50DA
:100AC0000FF2E85001F090BA0022574B03F03AB908
:100AD00056495748574A80B5097800781278012955
:100AE00007D1022808BF012A22D1BDE8014002F047
:100AF00074BF022918D101284F4903D100204A8030
:100B0000888002E0032808BF8A80891C42F63720CB
:100B100003F047F8BDE8024000280CBF0FF2B450C4
:100B20000FF2D45001F060BABDE8014003F064BA9E
:100B300001BD000003F078BA0021082000F002BDDA
:100B4000012000F025BD012000F02ABD10B50446AB
:100B5000616801F1080003F0EDFA00B10120207096
:100B600010BD0000354910B1012803D07047084678
:100B700000F0FCBC084600F001BD0000A008032006
:100B80009B120008AC07002008050020B0080020D8
:100B9000AC0800208207002081070020040000200C
:100BA0006C07002074070020DDCCBBAA830700205F
:100BB000980700201D0900207D0700207E070020E7
:100BC000880700207F0700207C0700208075FF1F1A
:100BD000A40800209E0800201409002046E001001F
:100BE0001E090020940700209007002085070020A0
:100BF000A20800209F080020A008002095080020DF
:100C00009A080020990800209408002096080020E7
:100C10009C08002097080020980800201C0900204C
:100C200004090020800700200000F43FA4060020F3
:100C3000A5060020A806002058080020FFFF0F008E
:100C40000D0A0D2A2A20444953434F4E4E45435422
:100C5000494F4E204556454E54205749544820434D
:100C60004C49454E54200A000D0A0D2A2A20434FB4
:100C70004E4E454354494F4E205550444154452013
:100C80004556454E54205749544820434C49454EFB
:100C900054200A004556545F5550444154455F5016
:100CA00048595F434F4D504C455445200A000000C1
:100CB000526561645F50485920737563636573734F
:100CC000200A000050485920506172616D20205464
:100CD000583D2025642C2052583D202564200A00D0
:100CE0005265616420636F6E66206E6F7420737549
:100CF000636365657373200A000000004843495F21
:100D00004C455F434F4E4E454354494F4E5F434F12
:100D10004D504C4554455F5355424556545F434FE3
:100D2000444520666F7220636F6E6E656374696FF1
:100D30006E2068616E646C6520307825780A00004A
:100D400065786368616E67655F636F6E6669672C5F
:100D5000205375636365737366756C6C79200D0A37
:100D60000D00000065786368616E67655F636F6E94
:100D70006669672C204661696C6564200D0A0D0068
:100D800040030000503250535256310048525354E1
:100D90004D0000006E6F6E20646973636F7665723C
:100DA00061626C652C205375636365737366756C43
:100DB0006C79200D0A0D00006E6F6E2064697363FC
:100DC0006F76657261626C652C204661696C656442
:100DD000200D0A0D000000007365742064697363C0
:100DE0006F76657261626C652C2053756363657301
:100DF0007366756C6C79200D0A0D000073657420A4
:100E0000646973636F76657261626C652C204661FC
:100E1000696C656420307825780D0A0D00000000AB
:100E20008FE5B3D52E7F4A982A487ACC000000007F
:100E300041646420736572766963652C2053756321
:100E40006365737366756C6C79200D0A0D00000084
:100E500041646420736572766963652C204661691C
:100E60006C6564200D0A0D0019ED82AEED214C9DDC
:100E70004145228E00000000416464206368617275
:100E8000616374657269737469632C20537563635D
:100E900065737366756C6C79200D0A0D0000000097
:100EA000416464206368617261637465726973741C
:100EB00069632C204661696C6564200D0A0D000091
:100EC000536C6176655F73656375726974795F727F
:100ED000657128292C205375636365737366756C7F
:100EE0006C79200D0A0D0000536C6176655F7365A7
:100EF0006375726974795F72657128292C20466167
:100F0000696C6564200D0A0D000000005061697273
:100F1000696E675F436F6E6669726D5F416E73776E
:100F2000657228292C205375636365737366756C2D
:100F30006C79200D0A0D000050616972696E675F5F
:100F4000436F6E6669726D5F416E737765722829B3
:100F50002C204661696C6564200D0A0D00000000BC
:100F6000506173735F4B65795F5265737028292CEC
:100F7000205375636365737366756C6C79200D0A15
:100F80000D000000506173735F4B65795F526573AC
:100F90007028292C204661696C6564200D0A0D00BB
:100FA000494F5F4361706162696C69747928292CCB
:100FB000205375636365737366756C6C79200D0AD5
:100FC0000D000000494F5F4361706162696C697494
:100FD0007928292C204661696C6564200D0A0D0072
:100FE0007365745F61757468656E74696361746953
:100FF0006F6E5F72657128292C205375636365736A
:101000007366756C6C79200D0A0D00007365745F52
:1010100061757468656E7469636174696F6E5F721F
:10102000657128292C204661696C6564200D0A0DC4
:1010300000000000436C6561725F736563757269DF
:1010400074795F646228292C205375636365737318
:1010500066756C6C79200D0A0D000000436C6561AB
:10106000725F73656375726974795F646228292C95
:10107000204661696C6564200D0A0D00424C455F95
:101080005356435F4C324341505F436F6E6E5F5522
:10109000706461746528292C2053756363657373CC
:1010A00066756C6C79200D0A0D000000424C455F9E
:1010B0005356435F4C324341505F436F6E6E5F55F2
:1010C000706461746528292C204661696C65642010
:1010D0000D0A0D004852535F557064617465436892
:1010E00061722C205375636365737366756C6C79DC
:1010F000200D0A0D000000004852535F55706461D6
:101100007465436861722C204661696C6564200DCA
:101110000A0D0000000000000000000012345678A4
:101120009ABCDEF0123456789ABCDEF0FEDCBA09C6
:1011300087654321FEDCBA098765432162B38B07CB
:1011400008D0521E11F8013B00F8013B00F024804A
:101150008B07F6D1830740F0208000BF103A07D3F9
:1011600030B4B1E83810103AA0E83810F9D230BCE9
:10117000530724BFB1E80810A0E8081044BF51F895
:10118000043B40F8043BD20724BF31F8022B20F87F
:10119000022B44BF0B7803707047121F17D35B00FC
:1011A00009D151F8043B20F8023B1B0C121F20F818
:1011B000023BF6D20BE051F8043B00F8013B1B0A5E
:1011C00020F8023B1B0C121F00F8013BF3D238BF82
:1011D000121D521E24BF11F8013B00F8013BF8D844
:1011E0007047F0B40246106895681318506803EB16
:1011F0005004C00721D54D441FE0F0BC02F10C00A3
:10120000704713F8017B05F8017B491EF9D1A0B1A5
:10121000B60813F8011B06F00306032E08BF13F8E7
:10122000016B01EB06214942801C294405D011F8CD
:10123000016B05F8016B401EF9D1A342DDD013F814
:10124000016B16F0030104BF13F8011BC91C300920
:101250000F28DAD113F8010B0F30D6E77FB50C4613
:101260006D4D61686D4EE8612962284602F08EFF7F
:10127000246805F1240002F093FF746006F1080071
:1012800002F08EFF01203070296829B10FF255104D
:1012900000900294684688477FBD1FB55F4C04F1FB
:1012A000080002F080FF00BB2178F1B1694604F12B
:1012B000080002F0A1FF5848C16949B100980290A6
:1012C00001228DF8042001A888479DF8040000E061
:1012D00001202070207818B1009803F042F804E053
:1012E000009904F1080002F067FF04F1080002F021
:1012F0005AFF28B9207818B104F10800FFF71CFC48
:101300001FBD2DE9F8430646002000F05FF8748801
:101310003088B268DFF80081C4F3090444EA80240D
:10132000F068A4B2C1B2204600F03CF8002748F2B1
:10133000E8094846FFF707FC08E06888A04202D1A8
:10134000316928780870687800B1012708F1240015
:1013500002F029FFF0B9694608F1240002F04CFFC1
:10136000009800F10B05407A0F28E6D0B5F801107F
:10137000A1420DD10098817AC81E7169C0B288421D
:10138000C8BF0846706102463069E91CFFF7D6FE07
:101390002878D9E73800CCD0012000F017F80020D9
:1013A000BDE8F28310B513461C4A5468A4F809003E
:1013B000E1720A46194604F10C00FFF7BFFE164A17
:1013C0001369BDE810400021002018471249096A3E
:1013D00082B008B921B101E011B1012002B0084783
:1013E00002B0704710B50146487A0F2818BF0E2882
:1013F00007D10B4802F0EAFEBDE810400020FFF7DD
:101400009FBB064C04F1080002F0E0FE04F1080066
:10141000BDE81040FFF790BBE807002068080020F7
:101420000C0800200C48002101604160704710B595
:1014300000F00CF85C6819B1012904D1204301E0E7
:1014400024EA0000586082F3108810BDEFF3108288
:1014500072B6014B70470000C40800202DE9FC471C
:10146000604CDFF88491A5692840A0614FF0FF3AF5
:1014700021694FF0010834E0521C54F832006169D0
:1014800019400142F8D0616904EBC2060840716856
:101490001840014208BFC6F804A07768384000F041
:1014A000A5F8606208FA00F087437760EFF31081D7
:1014B00072B6626A206908FA02F2D24310402061D3
:1014C000022004EBC00353F8086C1640401E43F89A
:1014D000086CF6D181F31088606A59F820108847AB
:1014E0002169A36960690140194205D0E069216A58
:1014F000084208BF0022C0D0C4F824A002F07FFF39
:10150000EFF3108972B6216960690140A069014258
:1015100001BFE169206A014203F07DF889F3108878
:1015200003F08AF8A561BDE8F38738B51446EFF3F8
:10153000108572B600F05AF82B4941F8204085F327
:10154000108831BD10B500F00BF804431C6153F84E
:101550003140204343F83100FFE782F3108810BD8B
:10156000EFF3108272B61F4B1C697047EFF31081C6
:1015700072B61C4A536923EA000005E0EFF31081BC
:1015800072B6184A53691843506181F31088704746
:10159000EFF3108172B6134AD3691843D061F4E7B0
:1015A000F8B5104C666A256A374616F1010F0EBF72
:1015B0000026012101FA06F6206202E0304603F01F
:1015C0002BF8216AE0690842F8D06762EFF31081D6
:1015D00072B6E269206A8243E26181F31088256273
:1015E000F1BD0000340200208C05002002460020DE
:1015F000110C090404BF1020120412F07F4F04BF25
:10160000083012020FF2180112F0704F04BF001DD3
:101610001201120FC0F11F00895C401AC0B270475E
:1016200004030202010101010000000000000000AB
:1016300003F059F89DF80E0005B000BDF8B500F1B3
:101640000C026B4625214FF66640F1E7F8B500F134
:101650000C026B460F214FF66840E9E7F8B50246E9
:101660006B460E214FF67540E2E770B51B491C4BE7
:101670000A681C49C2F30D0201EB82010C68226862
:101680009A4205D16569A169E269E368246904E0C9
:1016900025696169A2696368A4682E0E06700172EB
:1016A0002E0C467042722E0A8670C473C5F3031660
:1016B00005F00F050571C6700D0E45710D0C857195
:1016C0000D0A190E8172C571190CC1721B0A210E07
:1016D00041730373210C8173002070BD3C4000589E
:1016E000B95646A900000320F8B503F04BF802F004
:1016F00087FE00F0C7F8AA4CAA4804F5D075A86385
:1017000004F5EC7003F06EF808B100F082F9A64819
:1017100020604FF4165060600020A060E0602061FF
:101720000C2060610020A06120626062A06260669F
:10173000204603F08FF808B100F06BF90021204635
:1017400003F03BFF08B100F064F90021204603F0EC
:101750003FFF08B100F05DF9204603F011FF08B12A
:1017600000F057F904F1F0069048306204F58877EC
:101770004FF4E13070620020B062F06230630C2000
:1017800070630020B0634FF40040F06300203064C9
:101790007064B064384603F05DF808B100F039F9C0
:1017A0000021384603F009FF08B100F032F90021AA
:1017B000384603F00DFF08B100F02BF9384603F06E
:1017C000DFFE08B100F025F9794828600020686044
:1017D0000F20A86047F6FF70E86000202861A8612C
:1017E000E8616861284603F047FF08B100F011F98D
:1017F000704868620020A86204F5E27003F0E0FF20
:1018000008B100F006F902F023FE40216A4803F017
:10181000F7FF0FF2042000F0E7FB00F0AFFC0A2214
:101820000FF20C216548FFF789FCFEF705FF014622
:1018300006226348FFF782FC62491820087062495B
:1018400032680A6001206149614A08700021117004
:101850004FF084425F486049026001205F4A0A609D
:1018600000215F4A10705F4A10705F4A10705F4A33
:101870005F48117001215F4A10605F4A117002F0E9
:10188000C9FEFCE710B5AEB01CA8482104F030F842
:1018900001A81C2104F02CF808A8502104F028F815
:1018A00004F02AF85548016821F018010160072169
:1018B0005348026822F4C06242F4007202604FF49E
:1018C0008032006800F4C06000904FF4807400988B
:1018D0001C9101201E900021402020901D922791F4
:1018E0001F941CA804F019F808B100F092F86F20BA
:1018F000019002210020029103900490059006902F
:101900000790012101A804F0BAFA08B100F081F8AB
:1019100000210E910F9143F6032008904FF0805163
:1019200016914FF48040199000211A911B91189440
:1019300008A804F07DFC08B100F06BF82EB010BDD3
:1019400001B54FF6FF7301226946002004F006FE40
:10195000009802BD38B504460A464FF6FF7321468B
:10196000022004F0FBFD054621460FF2D00000F0F6
:101970003BFB284632BD80B520B10F490FF2C800AD
:1019800000F032FBBDE800500FF20D031D490122AB
:10199000022004F0CBBD00001A48007803F043BFDA
:1019A00020000020000C005800800040003801405A
:1019B00000280040001000582C0700209807002045
:1019C0006C070020830700208C0700201E090020E0
:1019D0008507002090070020940700200000404267
:1019E0001D0900207D0700207E0700207F070020C2
:1019F00007B20100880700207C07002090000058F3
:101A0000000400582009002080B500F0CDFB002024
:101A100002BD72B6FEE70000415420424C452073DF
:101A20006572766572207374617274730A000000C7
:101A3000415420736572766572000000202054586E
:101A40003A20257300000000202052583A202573C8
:101A50000D0A0000002204F0D5BDB1F5807F02D34D
:101A60004FF0FF3070470170012070470078401E32
:101A70008041C043C00F7047DFF83C150A6892B23E
:101A800000E00246086880B28242FAD170472DE930
:101A9000FC4104461825DFF82485DFF824656843F7
:101AA00008EB00073078062808D13178717034705F
:101AB00078754FF0FF307060002039E000F077F863
:101AC000B9680918B96008F10803B96832786A433F
:101AD0009A589142327813D308F1150315FB02FC92
:101AE00013F80C30062B25D008F108066B43F35889
:101AF000994222BF08F115036A439A5CEED219E0BD
:101B00001146337869439A420BD008F1140308F167
:101B1000150C5B5C15FB03F50CF805407A753B75FD
:101B200000E07A7508F11402545431787170347001
:101B3000BDE8F6811146694308F115035B5C062B8D
:101B400004D008F1140615FB03F574557B753A753E
:101B500008F115025454EBE7F8B5DFF86434DFF808
:101B60005C541E78182402466243B0422A4404D1D1
:101B700018785870507D18700FE0167D507D92F8DF
:101B800015C005F115076643062807F806C004D0FE
:101B9000167D143514FB00F42E55012010731878AF
:101BA000062802BF00294FF0FF315960F1BD10B582
:101BB000DFF80C44606810F1010F0FD0FFF75CFFF5
:101BC0006168DFF80024814261683CBF5388C9180E
:101BD000081A517848431178C84000E0002080B2CC
:101BE00010BD2DE9F84FDFF8DC53DFF8DCB3D5F892
:101BF0000880D8F80000DBF800104A0500F090F9E2
:101C0000DFF8BC63DFF8B4A321F4806181604FF09A
:101C1000180934780AF1080019FB04F14758FFF756
:101C2000C6FF874217D200270121B170062C3DD094
:101C300019FB04F40AF108010AF10802095981426A
:101C400023BF0AF108010959091A002111510AEBB1
:101C500004014C7DEAE7A9884118B94202D2AF8855
:101C60000021E2E73F1ADFE7022802DA287801289C
:101C700000D07F1ED8F80000C1684A07FAD500F0EE
:101C800055F9DBF80C00000CBFB247EA0047CBF86F
:101C90000C70FFF7F1FE7060A8680068816841F47D
:101CA00080618160AFF30080BDE8F18FB8B2002899
:101CB000DAD1FFF7E1FE70600320BDE8F24F04F0D7
:101CC00039BD2DE9F843EFF3108872B6BD4DBB4B1B
:101CD000A8680168CA224A6253204862B84A8868E4
:101CE00020F48060886018201678374647431F44E8
:101CF000387B022826D13C68D7F810909078F0B154
:101D00007A7B012A0AD101213046FFF725FF88F3AB
:101D100010887968304600F016F904E088F31088DE
:101D2000304600F0C1F8A8680068CA214162224626
:101D3000532141624846314600F050F90BE0FFF76D
:101D400050FF06E0C8684207FCD500F07EF89F49C6
:101D5000086088F31088FF21A86802685162BDE816
:101D6000F183F8B5974CA160CA2209684A625322F0
:101D70004A62954A136843F020031360136803F026
:101D80000703C3F10403237095682D0C05F07F054C
:101D90006D1C6570EDB29268C2F30E02521C628037
:101DA00092B2521E6A43A2F5A072DA404FF6FF7358
:101DB0009A422CBFA380A280854A136843F4002373
:101DC0001360844B1D6845F400251D6048BB7C48AA
:101DD0007A4E0123837018254FF0FF3343600023B0
:101DE0005FFA83FC06F10C0715FB0CFC4FF0000EAC
:101DF00007F80CE05B1CDFB2062FF1DB0623037053
:101E0000886820F48060886000F01FF8D0600320AC
:101E100004F09BFCA1680868826842F480428260FA
:101E200005E0C868410544BF032004F083FCA168B5
:101E30000A68FF20506200220321032004F02EFCD8
:101E4000BDE8F240032004F047BCC86800F0800001
:101E500060F49060C8604FF400207047F0B504460D
:101E60000025EFF3108672B61827DFF850C10CF189
:101E70000C0007FB05FE10F80E0010B16D1C062DBE
:101E8000F5DB062D0CD06F430CEB07000127077321
:101E900086F310880461427303600D700020F0BD6A
:101EA00086F310880120F0BDF8B50746EFF31084E3
:101EB00072B6032004F01BFC424DAE683068CA21A4
:101EC00041623A4653214162182043494243895CAA
:101ED00002291BD100213846FFF73EFE3848017821
:101EE00006290ED1306838490A68530500F018F801
:101EF00021F480618160C1684A07FCD500F016F8C2
:101F000004E04078884218BFFFF76BFEA9680A68B2
:101F1000FF205062032004F0DFFB84F31088F1BD42
:101F200002D5C1684A07FCD481687047C16801F0D6
:101F3000800161F49061C1604FF400202349086082
:101F4000032004F002BC2DE9F04180460F464246D2
:101F500018201A4942438C18207B022804BF4046AF
:101F6000FFF7A2FFEFF3108572B6032004F0BFFB6A
:101F7000144EB0680068CA214162532141620220B8
:101F80002073A76067604046FFF781FD0C490A781F
:101F90004978914202D0FFF724FE02E0A168081AB6
:101FA000A060FF20B1680A685062032004F094FB2F
:101FB00085F31088BDE8F0812828004078040020CF
:101FC000FC08002088080020082800400C08005861
:101FD0000008005880080058840400201047026858
:101FE000531C0360117070470EB4C0B5024603A8BD
:101FF00000210190009101AB0121044878440C308C
:1020000004F0C0FB06BC5DF810FB00BF838100003C
:1020100000B587B000F03DF8012003220690ADF82E
:102020000420ADF8062000F0A3F800284CBFFF20E4
:102030009DF8000007B000BD182201A805F073BB91
:10204000ADF806100820704778B5C7B004460D46B5
:102050001646032200F026F8ADF81C40ADF81E50DD
:10206000ADF8206000F018F82221FFF7E9FF062103
:1020700000F009F800F07AF800284CBFFF209DF826
:10208000000048B070BDADF80400049107A803211A
:10209000704700208DF800001822002101A805F0EB
:1020A00042BB09220021684605F03DBB18220021F1
:1020B00002A805F038BB70B5C8B006460C461546F8
:1020C0000522FFF7EFFFADF82060FFF7EFFF3021AB
:1020D00000F014F80521049000F019F8002848BF1A
:1020E000FF2009D49DF8000030B99DF8030020704E
:1020F0009DF804002870002048B070BDADF80A10AB
:1021000008200221ADF80800059108A87047079142
:10211000CDF818D0002102A8FFF7F3B800B5C7B07A
:1021200000F00EF8FFF788FF312000F013F800F000
:102130001FF800284CBFFF209DF8000047B000BDED
:1021400000238DF81C008DF8003007A841708270C4
:1021500000217047ADF8060007A90320049008226B
:10216000012003910690ADF804207047039006917A
:10217000CDF814D0002101A8FFF7C3B810B5DFF8DF
:10218000B04A4021201D03F0B3FB402104F144007C
:1021900003F0AEFB402104F1840003F0A9FB1520FD
:1021A0002070002010BD00002DE9F0472DED048BBC
:1021B00094B0064602223AA105F0BFFA0124002895
:1021C000DFF86C5A11D1304601F0F8F8022803D13B
:1021D000002028700024A4E0032232A100F06BFC50
:1021E000002802BFF61C2878152840F00D8400272F
:1021F000DFF8409A59F827A0504601F0DFF8024670
:10220000514600F058FC78B17F1C152FF2DB95F891
:102210000090B9F1150F00F0F78300F04FFC22A7F2
:1022200000F047FC40B90CE02F70287859F82000E6
:1022300001F0C4F80644EAE71CA700F03AFC0028C5
:102240006FD139788DF8001006F1010A9DF8001061
:10225000002900F0CC83A9F10100132814A715A6CA
:1022600000F2C583DFE810F01400A3038002FB0234
:102270001903DB00F4000D017D009B0029016400BF
:1022800078013B015A0197017203AF01F5013D024C
:102290003F2911D105F1440005F09EFB8DE300BFFD
:1022A0004154000041542B003F0000003D0000005D
:1022B000307800002C0000003D2932D100F0F5FB01
:1022C000002420B100F0E3FB8DF8040000E00124BD
:1022D0009DF80400C01E05281AD200F0F4FB20B1BE
:1022E00000F0DAFB8DF8050000E0012400F0EBFBC4
:1022F00020B100F0D1FBADF8060000E0012400F0B1
:10230000E2FB20B100F0C8FB8DF8080000E00124DA
:102310009DF804000828A8BF012400F0D4FB08B1F0
:10232000012471E3002CFCD101A805F01BFA5CE349
:102330003F29F6D03D29F4D100F0B7FB002420B1AD
:1023400000F0AAFB8DF8010000E0012400F0BBFBC7
:102350000028E5D1002CE4D10DF1010005F076FA5A
:1023600043E33F2904D105F1440005F0E4FB24E3F5
:102370003D29D6D100F099FB002420B100F08CFB60
:102380008DF8010000E0012400F09DFB0028C7D17A
:10239000002CC6D10DF1010005F035FA25E33F29E7
:1023A00004D105F1440005F0C9FB06E33D29B8D18D
:1023B00000F07BFB002420B100F069FB8DF80400E5
:1023C00000E0012400F07FFB20B100F065FB8DF8F8
:1023D000050000E0012400F076FB20B100F05CFB7A
:1023E0008DF8060000E0012400F06DFB20B100F044
:1023F00053FB8DF8070000E0012400F064FB18B1E6
:1024000000F04AFB029000E0012400F05CFB002891
:10241000BDD1002C6BD101A805F0FEF9E5E23F2902
:1024200052D03D2963D100F040FB002420B100F0E0
:1024300033FB8DF8010000E0012400F044FB00288C
:10244000A5D1002C53D10DF1010005F0C5F9CCE266
:102450003F2939D03D294AD100F027FB002420B183
:1024600000F01AFB8DF8010000E0012400F02BFBC6
:1024700000288CD1002C3AD10DF1010005F0B1F902
:10248000B3E23F2904D105F1440005F037FC94E2A2
:102490003D292CD100F009FB002418B100F0FCFA12
:1024A000019000E0012400F00EFB00286AD1002C0E
:1024B0001DD101A805F09EF997E23F2904D03D29DE
:1024C00015D100F0F2FA002800F09E8200F0E4FA44
:1024D0008DF801000DF1010005F0B3F985E23F2907
:1024E00004D105F1440005F0EEFA66E23D2940F022
:1024F0008B8200F0DAFA40B100F0B9FA04469DF898
:102500000100062818BF44F0010400F0DCFA00F0D6
:10251000C7FAECD101A805F09EF966E23F2904D183
:1025200005F1440005F0E7FA47E23D29DFD100F06C
:10253000BCFA40B100F09BFA04469DF80100062861
:1025400018BF44F0010400F0BEFA00F0A9FACED1A1
:1025500001A805F08BF948E23F2904D105F14400B8
:1025600005F0E5FA29E23D29C1D100F09EFA0024E8
:1025700020B100F091FA8DF8010000E0012400F094
:10258000A2FA00287FF4CCAE002CB0D10DF10100EE
:1025900005F07EF929E23F2904D105F1440005F058
:1025A000E2FA0AE23D29A2D1504600F007FF401CA2
:1025B000152880F02982514601A800F01FFD01A8CE
:1025C00005F06CF911E23F2944D03D298FD100F08C
:1025D0006CFA002420B100F05FFA8DF8080000E0EA
:1025E000012400F070FA20B100F056FA8DF80900CD
:1025F00000E0012400F067FA5FEA00081FD0022221
:10260000394605F09AF858B940208DF84A000DF186
:102610004A020DF10A01404605F0D8FA04430FE0E2
:1026200000F030FAADF804000DF10A0102208DF837
:102630004A0001A802780A7042784A7000E001243A
:1026400000F041FA00F02CFA53D102A805F036F957
:10265000CBE13F2900F0D8813D294AD100F025FA8D
:10266000002420B100F018FA8DF8040000E00124E5
:1026700000F029FA20B100F00FFA8DF8050000E013
:10268000012400F020FA5FEA000820D00222394637
:1026900005F053F858B940208DF846000DF1460278
:1026A0000DF10601404605F091FA044310E000F0F8
:1026B000E9F9ADF802000DF1060102208DF846009F
:1026C0000DF1020002780A7042784A7000E001249D
:1026D00000F0F9F900F0E4F90BD101A805F0FBF8DE
:1026E00083E13F2904D105F1440005F04FFA64E18C
:1026F0003D2940F0898100F0D8F900249FEDA88A97
:10270000F1EE0E8A60B100F0BAF900F0ABF907DB28
:10271000B4EE480AF1EE10FA48BF8DED010A00D47C
:10272000012400F0D0F998B100F0A9F900F09AF96D
:102730000EDBB4EE480AF1EE10FA09D5DDED010A20
:10274000B4EE600AF1EE10FAA8BF8DED020A00DACD
:10275000012400F0B8F900287FF4E2AD002CC8D1C4
:1027600001A805F0D1F840E13F2904D105F144006A
:1027700005F008F921E13D29BBD100F096F90024CC
:1027800020B100F089F98DF8040000E001249DF8E3
:102790000400002836D1314605F0B2FA20B100F02D
:1027A0007BF98DF8050000E0012400F08CF9DFEDE5
:1027B000AC8AB3EE049A80B100F061F9B0EE408AC1
:1027C000B4EE498AF1EE10FA07DBB4EE688AF1EE56
:1027D00010FA48BF8DED028A00D4012400F073F98D
:1027E000B5EE408AF1EE10FA2ED000F048F9B4EEC2
:1027F000490AF1EE10FA27DB00F034F924D58DED0B
:10280000030A22E0012808D100208DF805004FF0CE
:1028100084400290DFF83C0414E0022808D1002034
:102820008DF80500DFF830040290DFF8300409E08D
:10283000032809D100208DF80500DFF82404029058
:10284000DFF82004039000E0012400F03CF90028A8
:1028500074D1002C75D101A805F072F8C5E03F29AC
:1028600004D105F1440005F0A5F9A6E03D2968D1A1
:1028700000F01BF9002420B100F00EF98DF80100E2
:1028800000E0012400F01FF9002857D1002C58D196
:102890000DF1010005F06FF8A7E03F2900F0B480CA
:1028A0003D294ED100F001F9002420B100F0F4F8E8
:1028B0008DF8040000E0012400F005F920B100F0DB
:1028C000EBF88DF8050000E0012400F0FCF820B1E1
:1028D00000F0E2F88DF8060000E0012400F0F3F8C3
:1028E00020B100F0D9F8ADF8080000E0012400F0B4
:1028F000EAF820B100F0D0F8ADF80A0000E00124B9
:1029000000F0E1F820B100F0C7F88DF80C0000E00D
:10291000012400F0D8F820B100F0BEF88DF80D00C9
:1029200000E0012400F0CFF820B100F0B5F88DF8F8
:102930000E0000E0012400F0C6F800287FF4F0AC9F
:10294000002C61D101A804F02DFF4EE03F2904D1F5
:1029500005F1440005F00BF92FE03D2954D100F0BA
:10296000A4F8002488B100F08AF80020BE49C2B261
:1029700001EB8202D2ED000AB4EE600AF1EE10FA29
:1029800010D0401CC2B2802AF1D3012400F09BF881
:102990000028D3D1002C37D101A804F087FF24E010
:1029A00001007A458DED010A8DF80800EEE73F2918
:1029B00006D105F1440005F03DF88046002418E0FA
:1029C0003D2921D100F071F8002420B100F064F815
:1029D0008DF8010000E0012400F075F80028ADD169
:1029E00094B90DF1010004F0D5FE04460CE03F2936
:1029F0000AD15FFA88F0002806D105F14401484663
:102A000000F0E5F800F05AF82B78180086A687A1A8
:102A10000CD0152B0FF2602007DA04B10146281DF7
:102A200005F092F93146281D04E00146281D05F005
:102A30008BF9314605F088F9281D00F0BFFC81B202
:102A4000281DFEF787FF4021281D02F051FF1520A9
:102A500014B028702046BDEC048BBDE8F087000060
:102A600001002046B4EE680AF1EE10FA7047062124
:102A70008DF801100DF1010201A905F0A7B80021A0
:102A800005F01CBB00220021404605F068BB002277
:102A90000021504605F063BB0022002105F05FBB1A
:102AA00008B144F00104200070473146504605F05B
:102AB00027B901223946304604F03FBE402105F1D6
:102AC000440002F015BF3146002005F019B900009E
:102AD0002DE9FC41804656480D460178012615290E
:102AE000FDD14146062966DA00F1840452A053A7BD
:102AF0000278227052A642785C48627050F8211029
:102B0000204605F021F94FA105F01EF9B8F1050F97
:102B100042D8DFE808F003333331333500F052F8A0
:102B200000F04CF8394605F00FF96A7800F04BF8E0
:102B300000F044F8394605F007F995F8F700022847
:102B4000B8BFAA7824DB40A1684605F00BFB00F073
:102B500035F800260FF2181795F8F710F0B28842F2
:102B60001AD2A81CF1B2761C425C3946684605F0C0
:102B7000F9FA00F023F8EFE72A6809E02A7807E07D
:102B800000F020F800F01AF8394605F0DDF86A7810
:102B900000F019F800F012F823A1204605F0D4F84F
:102BA00000F00CFC81B22046FEF7D4FE0646402120
:102BB000204602F09DFE3046BDE8F681694620467B
:102BC00005F0C2B82A783146684605F0CBBA70B530
:102BD000044620000D4623D0152C21DA144E1BA1EB
:102BE000301D05F0B1F8134951F8241005F0ACF888
:102BF00017A1301D05F0A8F8294605F0A5F80AA18F
:102C0000301D05F0A1F8301D00F0D8FB81B2301D59
:102C1000FEF7A0FE04464021301DFEF71BFF00E03A
:102C20000124204670BD00000D0A00004F4B00003B
:102C3000B40300205C0200203C0000002C000000D7
:102C4000256400003D000000307800002B000000EB
:102C50003A00000000004042000090430000A04302
:102C60000000C84400007A45B0000020B4020020F3
:102C700025303278000000004552524F52000000CB
:102C800000B587B000208DF8000000F0FEF840F29B
:102C90000110ADF806003F220120069000F03AF93D
:102CA00000284CBFFF209DF8000007B000BD2DE9B3
:102CB000F84107460128C7B0884615461E4608BF9A
:102CC000022003D002280CBF102000200DF11D01AE
:102CD0000C1800F036F8012F8DF81C7002D0022F6E
:102CE00018D019E002273A4641460DF11D0004F0C4
:102CF00014FD2570667000F0C8F83F204FF4817114
:102D000000F016F8FF1C049700F006F9002805D51E
:102D1000FF2009E01027E6E7972005E09DF8000076
:102D200010B94E9800F067F8FFE748B0BDE8F081B1
:102D3000ADF80400ADF8061007A803210390069132
:102D4000704703220021684604F0EDBC2DE9F64FE0
:102D50000C460546012CC7B09B4608BF022003D095
:102D6000022C0CBF102000200DF11F010E18FFF7E0
:102D7000E8FF012CADF81C508DF81E4002D0022C4B
:102D80002CD02DE00227569C559DDDF85091DDF8A2
:102D90004CA1DDF8488148993A4600F072F8A6F84F
:102DA00000B086F8028086F803A086F8049075715A
:102DB000B47100F06AF83F20ADF804004FF482715E
:102DC00007A8ADF80610039003210A37049706916F
:102DD00000F0A2F8002805D5FF2009E01027D2E76F
:102DE000972005E09DF8000010B9579800F003F80F
:102DF00049B0BDE8F08FBDF8011001800020704798
:102E000030B5C7B01C464A9B00F067F800258DF826
:102E100000508DF82140224619460DF1220004F0A1
:102E20007CFC00F032F83F204FF4837100F060F832
:102E3000A41D049400F070F800284CBFFF209DF8FA
:102E4000000047B030BD00B5C7B000F014F800F086
:102E50000EF80F21029140F20B10022100F052F8FF
:102E600000284CBFFF209DF8000047B000BD18228D
:102E700001A804F058BC0021ADF81C008DF800102A
:102E800070470DF11F0004F048BC1822002101A872
:102E900004F049BC78B5C7B04C9C4D9D00F01DF8BE
:102EA00000268DF821308DF800608DF822402246F2
:102EB000294600F019F8FFF7E8FF3F204FF493711F
:102EC00000F016F8E41D049400F026F800284CBF2A
:102ED000FF209DF8000048B070BDADF81C00ADF8B3
:102EE0001E108DF8202070470DF1230004F015BC52
:102EF000ADF80400ADF8061007A801210390069173
:102F000070470621ADF80600049107A801213F2271
:102F100003900691ADF80420CDF814D0002101A84B
:102F2000FEF7EFB90FF22801084B31F8101053F8F3
:102F30002000012205F0FAB90FF21401034B31F819
:102F4000101053F82000002205F0F0B9DC02002038
:102F5000200001000200000018B50C46C7B0114661
:102F600000228DF800208DF81C008DF81D402246AF
:102F70000DF11E0004F0D1FB00F02AF83F200C21D7
:102F8000ADF80400ADF8061007A8012103900691E2
:102F9000A41C049400F02CF800284CBFFF209DF8DE
:102FA000000048B010BD00B5C7B000F00AF80F200F
:102FB00000F013F800284CBFFF209DF8000047B038
:102FC00000BD00228DF800208DF81C008DF81D102A
:102FD0001822002101A804F0A6BBADF8060007A93D
:102FE000022004903F22012003910690ADF80420B6
:102FF000CDF814D0002101A8FEF783B95FEA000CD8
:1030000080EA01039B0715D1830706D011F8013B25
:1030100000F8013BB3B18307F8D10A68B2F101337C
:1030200023EA020313F0803F02BF40F8042B51F85B
:10303000042FF3E711F8013B00F8013B13B111F83D
:10304000013BF9E76046704700B587B000F09CF996
:1030500000F084F9812000F038F900F043F90028ED
:103060004CBFFF209DF8000007B000BD2DE9F84DD2
:10307000C7B09446DDF840E1519A559D569EDDF863
:103080004CA1ADF81D108DF81C004FF0000BADF8F1
:103090001FC08DF821308DF822E000F024F800F0F8
:1030A00017F824F8095F668000F058F93F20832163
:1030B00000F045F9574406910D37049700F015F9D3
:1030C00000284CBFFF209DF8000048B0BDE8F08DFF
:1030D00088F800A007AC5499E419524608F10100A1
:1030E000544404F01ABB8DF82320174652998DF8EA
:1030F00000B00DF1240809A8B84404F00EBB00B5D7
:10310000C7B000F00CF8852000F0F5F800F0EAF800
:1031100000284CBFFF209DF8000047B000BD0021F3
:103120008DF81C008DF80010182201A804F0FBBADD
:103130002DE9F841C7B04FF0000800F026F80DF176
:103140002300DDF844E14E9F4F9E509D529C8DF828
:103150001F30C0F800E08DF800808DF820708DF8E9
:1031600021608DF822508DF8274000F0F7F8862076
:10317000ADF8060007A90C2000F0B0F800284CBFFD
:10318000FF209DF8000000F0FCB88DF81C0007A897
:1031900041708270704700B5C7B00022ADF81C00C6
:1031A0008DF800200DF11E001822016001A80021F9
:1031B00004F0B9FA8820ADF8060007A9062000F04F
:1031C0008DF800284CBFFF209DF8000047B000BDDF
:1031D000F8B5C8B005460E4617461C4600F023F861
:1031E00008A8467087708DF8205000F0A3F88A2157
:1031F000ADF80A103F20032100F08FF8002848BFE7
:10320000FF200ED49DF8000058B94F994E98BDF894
:1032100001202280BDF803200280BDF8050008804F
:10322000002049B0F0BD07220021684604F07BBAB7
:1032300000B5C7B00021ADF81C00FFF773FF0F21E8
:1032400002918D20022100F05FF800F04CF8002878
:103250004CBFFF209DF8000047B000BD18B5C7B0B7
:1032600000F0A1F800F07AF83F208E2100F090F8ED
:1032700000F03BF800284CBFFF209DF8000048B04C
:1032800010BD00B587B000F07FF800F067F892201D
:1032900000F01BF800F026F800284CBFFF209DF836
:1032A000000007B000BD00B587B000F06DF800F079
:1032B00055F8942000F009F800F014F800284CBFED
:1032C000FF209DF8000007B000BDADF806003F22CA
:1032D00001207047ADF8060007A9032004903F22A3
:1032E000012003910690ADF80420CDF814D0002100
:1032F00001A8FEF706B8ADF8060007A901203F2295
:103300000391049070470321ADF80600049107A8CB
:1033100001213F22039006917047ADF80800059106
:1033200008A8072104900791CDF818D0002102A821
:10333000FDF7E7BF1822002102A804F0F4B9ADF8A8
:103340000400ADF8061007A8012103907047002281
:103350008DF80020ADF81C008DF81E1018220021F9
:1033600001A804F0E0B900B5C7B0FFF7F0FFA52051
:10337000FFF7B0FF00284CBFFF209DF8000047B0CA
:1033800000BD48B0BDE8F08100208DF80000704716
:10339000ADF80400ADF8061007A8012103900691CE
:1033A000641C04947047044600208DF800008DF8DA
:1033B0001C4022460DF11D0004F0AFB900F10103DD
:1033C000810704D010F8011B89B18107FAD1026886
:1033D000B2F10131914311F0803F04BF50F8042F46
:1033E000F6E710F8011B11B110F8011BFBE7C01A3A
:1033F000704770472DE9F84F0446C4B06078FF2845
:103400004FF0000914D1B4F803000FF2D82BDFF805
:103410000C82834D001F0DF1100A00F0D48040F69D
:10342000FD31401A21D0801E03D0103800F0818079
:10343000D1E00FF2F410FEF7D7FDB4F807100FF249
:103440000C20FEF7D1FDE88A40F64802FB21FEF78A
:10345000FBFD010004D00FF20420FEF7C5FDBAE029
:103460000FF21C20FEF7C0FDB5E003260A25002759
:1034700005FB06F1414401EB470131F8162CB4F885
:103480000700921C90420CD1607BC1074FF00109EC
:1034900048BF002003D480074CBF0220032000F067
:1034A000B3F87F1C042FE3DD761C052EDFDD03253A
:1034B0000A206843404400260090009900F09AF8E2
:1034C00030D1B4F80B300FF2DC1032462946FEF74B
:1034D0008BFD0FF20020FEF787FD4FF0010900275A
:1034E00005E004F10D0000F080F87F1CFFB2B4F895
:1034F0000B008742F5DB48A0FEF776FD8DF80D50F6
:103500008DF80E60B4F80B008DF80F00002003E07A
:1035100004F10D0100F063F8B4F80B108842F7DBFA
:1035200000F071F8761C042EC7DD6D1C052D52DCF1
:10353000BEE703250A206843404400260290029912
:1035400000F058F838D1637A0FF2AC1032462946B1
:10355000FEF74AFD0FF27C10FEF746FD4FF0010921
:10356000002705E004F10A0000F03FF87F1CFFB2DD
:10357000607A8742F6DB28A0FEF736FD8DF80D5005
:103580008DF80E60607A8DF80F00002003E004F1E2
:103590000A0100F024F8617A8842F8DB04F10A009D
:1035A000009101900023B4F80710B4F80500002240
:1035B000FFF770FC00F027F8761C042EBFDD6D1CB1
:1035C000052D08DCB6E70120FFF7ACFC95F882007A
:1035D0000A21FEF7B8FC484645B0BDE8F08F095C0B
:1035E0000AF80010401CC0B270473946C25D584608
:1035F000FEF7FABCB4F8070001EB460131F8162CCF
:10360000521C9042704704208DF8050103A800F079
:10361000BDBC044800F086BD200D0A00AC070020A8
:1036200008050020F53300084556545F424C5545C7
:103630005F4154545F45584348414E47455F4D54A0
:10364000555F52455350200A000000004D54555F0D
:1036500073697A65203D202564200A007365742013
:1036600064617461206C656E67746820636F6D6D52
:10367000616E64206572726F72202578200A0000E6
:103680007365742064617461206C656E6774682072
:10369000636F6D6D616E6420737563636573732012
:1036A0000A000000575249544520434841524143C3
:1036B000207376633A20256420636861723A20257E
:1036C00064202D204C454E475448203D2025642041
:1036D0000A000000526563657074696F6E203A20BD
:1036E00000000000446174615B25785D203D20305E
:1036F0007825782000000000575249544520504555
:10370000524D495420524551204348415241432093
:103710007376633A20256420636861723A202564D9
:10372000202D204C454E475448203D202564200A3A
:103730000000000001460648064AC3798B4218BFC4
:10374000904218BF0838F8D18B4218BF002070474C
:10375000F873FF1F0070FF1F1FB541780024FF2979
:1037600002BFB0F8032040F601418A4220D1624AEC
:103770009388B0F807109B1C994209D1407B012423
:10378000C10752BF8DF8004000218DF800100CE0F9
:103790005288521C91420BD103218DF80010B0F8D1
:1037A0000B208DF808200D300190684600F0A8F835
:1037B000204604B010BD10B58AB050484E4C00F001
:1037C000B1FC8F218DF81810E520B3218DF8190078
:1037D0008DF81A10D5202E218DF81B008DF81C10A5
:1037E0007F204A218DF81D008DF81E1098202A2177
:1037F0008DF81F008DF8201048207A218DF82100C7
:103800008DF82210CC2040218DF823008DF8241053
:10381000FE2000218DF82500ADF826100094082325
:10382000012206A90220FFF742FA00F032F84120F7
:1038300000F023F8A01C00F010F8062100F015F8A5
:1038400000F027F8422000F018F8201D00F005F8DD
:10385000102100F00AF80AB010BD05900121049172
:10386000029100200A2201907047039200910223E6
:10387000208806AA0221FFF769BA8E218DF824005C
:103880008DF823100020FE21ADF826008DF82510BC
:10389000704719208DF81800ED2182208DF81A004C
:1038A0008DF81910ED20AE218DF81C008DF81B103D
:1038B0004C2021218DF81E008DF81D1041209D21E6
:1038C0008DF820008DF81F10222045218DF8220050
:1038D0008DF82110704780B592224FF642639842CE
:1038E00008D1054800910223818800880022FFF753
:1038F00087FA0246104602BDF40800205937000836
:1039000038B50546BEB02878394C20B1012804D01E
:10391000032805D030E0012000E0002020702BE0DB
:1039200068680178012919D14078012808D102205E
:103930008DF801008DF8001000F020F80122A2702F
:103940006968487850B9012102208DF800108DF87F
:103950000100002100F012F80020A07068680178D2
:10396000032909D14078012804BF0121A1706968A9
:10397000487808B90021A1703FB030BD01208DF812
:1039800002108DF8F70069460020FFF7A1B880B556
:103990000FF2310200211020FDF7C7FD144900226B
:1039A0000A70BDE8014080B50020FFF7C5FA104855
:1039B00001214170002181700121C170002101713C
:1039C00001BD00000A490879401E8041C00F0871FE
:1039D000087808B1C91C07E0704705480179491EFD
:1039E0008941C90F0171C11C4FF64260FFF773BFD7
:1039F000E4080020E0B505A0042100908DF8041033
:103A000042F62920694604F0B3FC07BD53544D002B
:103A100038B5024686B050780024FF2839D1B2F874
:103A200003106B4840F60143C91A1FD0123901BF79
:103A3000B2F80710C088401C81422AD1957AB2F8AA
:103A40000500537A0124012D08D10A320192009316
:103A500000220023FFF71EFA002015E00A3201922F
:103A6000009301228023FFF715FA12E04088B2F894
:103A70000710801C81420CD1507B0124C10748BF34
:103A80008DF8084002D402208DF8080002A800F04A
:103A9000A3F8204607B030BDFEB5014601AA487A1A
:103AA0008DF804004B7A08885070DC0704D508882C
:103AB000000A9070032300E00223487A040707D528
:103AC0004888D0545B1C4888DCB2000A10555B1C47
:103AD0004C7AE00610D50D7A00200BE001EB400493
:103AE000DFB2A688D6555B1CA488DEB2240A9455A2
:103AF0005B1C401CA842F1DB01A935480091DBB2F8
:103B0000418800880022FFF77BF9FEBD18B587B019
:103B100030482F4C00F006FB41F60D01ADF81810AF
:103B200000940823012206A90120FFF7C0F842F6FD
:103B30003720ADF81800012204920A20A11C03903E
:103B4000002310220591029301930092072300F0B5
:103B500023F842F63820ADF81800002204920292B1
:103B600001920A20211D03900222059100F012F813
:103B700042F63920ADF818000022049201920A2082
:103B8000A11D0390022308220591029300F002F880
:103B900008B010BD00920123208806AA0121FFF77A
:103BA000D5B880B5002242F63723C01A09D0401E8E
:103BB0000BD107480091012381880088FFF720F985
:103BC00002E00846FFF768FF0246104602BD00000B
:103BD000EC080020113A0008007820B91D480021A7
:103BE000818001210173704710B50FF23502002169
:103BF0000220FDF79AFC174C00210420217320704D
:103C0000214642F63820FFF7CCFF1F20E0720A2041
:103C1000A0800120A0724FF48060E08010BD000001
:103C20000D480C490068CA7A00F00700413048800E
:103C30001307087B04D518B98888401D888003E0E5
:103C4000012804BF00200873891C42F63720FFF7C3
:103C5000A8BF00005808002028280040C0F3C75122
:103C600081B1FF2906D0C110400721F0E04101F1E8
:103C70006051704741020CBF40F4E0016FF0004119
:103C80000020704700F0004100020AD0B0FA80FC2A
:103C900000FA0CF001F16051A1EB0C5101EBD021C5
:103CA00040057047C1F30A5340F2FE329B1A14DDFF
:103CB000D3F120034FEAE17208DDC90241EA505115
:103CC00041F00040D84080185040704703F2E13086
:103CD00010B1D24382F0004070470020704730B5E9
:103CE000C7B00025ADF81C0007A84A9C418082801F
:103CF000ADF8223004818DF8005000F01EF80F213D
:103D0000029140F281100A21ADF80600049107A843
:103D100001213F220390069100F007F800284CBFD4
:103D2000FF209DF8000047B030BDADF80420CDF86D
:103D300014D0002101A8FDF7E4BA1822002101A83F
:103D400003F0F1BCF0B540F2FF7581EA030C0CF012
:103D5000004C15EA11541DBF15EA1357AC42AF428F
:103D6000E5E0BC41C1F31301C3F31303801A994189
:103D700043F4801304D2641E400049418018594125
:103D8000C90241EA5051B1FBF3F603FB1611A2FB45
:103D90000675D7EBC020A94102D2761E8018594182
:103DA000C90241EA5051B1FBF3FE03FB1E11A2FB15
:103DB0000E75D7EBC020A94103D2AEF1010E8018D9
:103DC0005941890241EA9051760546EA8E2EB1FBAF
:103DD000F3F603FB1611A2FB0675D7EB8020A94171
:103DE00002D2761E80185941C90241EA50514EEA6A
:103DF000060EB1FBF3F603FB1611A2FB0675D7EB1B
:103E0000C020A94102D2761E80185941C90241EA58
:103E10005051B1FBF3F703FB1711A2FB0735D3EBAE
:103E2000C020A94167F100070CBF004247F001071D
:103E300066F3D5274FEA1E31B80814F5806412DD09
:103E4000BD0775F1004250EB0E5051EB045111F5D6
:103E5000801F5CBF41EA0C01F0BD4CF07F6141F076
:103E6000E0410020F0BDBD076D0840EA0E5041F46E
:103E70008011D4F10104B4F120060ADAC4F120065D
:103E80000200E04001FA06F3E1401843B240154356
:103E90000EE0342C13DCC6F1200445EA40056D0821
:103EA00020FA06F2154321FA06F0A1400D43002145
:103EB00075F1004250F1000051EB0C01F0BD002003
:103EC0005FEA0C01F0BDCFB992185B41B3FA83F7FA
:103ED00004BFB2FA82F6BF190B3FB7F120062FBF1D
:103EE00002FA06F3BB40C7F1200622FA06F638BFF5
:103EF0003343BA401CB1E419641E33E77F4231F00A
:103F00000041B1FA81F404BFB0FA80F6A4190B3C69
:103F1000B4F120062FBF00FA06F1A140C4F120063B
:103F200020FA06F638BF3143A0403C1B1AE7AC42EA
:103F30001ABF05EA1357AF4212E050EA41061CBF10
:103F400052EA4306BFE750EA4107304661461CBFCC
:103F500041EA0551F0BD52EA430C08BFC143F0BD30
:103F600000204FF4001616EB410F98BF16EB430FDD
:103F700008BF16EB410F24BFC14305E016EB430F0A
:103F80000CBF61464CEA0551F0BD704790F8F9103E
:103F9000042900D9704780B5BEB0DFE801F0030600
:103FA000090C11000FF2DC0007E00FF2FC0004E046
:103FB0000FF2181001E00FF23810FEF715F819E0B3
:103FC00041788DF8001082788DF80120C1788DF845
:103FD000F710002106E042180DEB010312799A70E8
:103FE000491CC9B29DF8F7209142F4DB69460020D4
:103FF000FEF76EFD3FB000BDF8B5194D19481A49DE
:104000002B780078194D1A4C2E78009100220A2145
:1040100011FB00F1214401EB460704EB400037F8A7
:10402000161C30F8060C17E0F8B5124912480B7848
:10403000124D134E29780E4C3578009000220A203C
:104040004143601800EB45070648057837F8161C11
:1040500004EB450434F8060CFEF7D2FEF1BD000077
:10406000A6060020A4060020A8060020A506002021
:10407000AC070020EA060020EC060020E80600203D
:10408000E9060020637573746F6D5F617070206E58
:104090006F74696669636174696F6E20656E6162D1
:1040A0006C6564200D0A0000637573746F6D5F6149
:1040B0007070206E6F74696669636174696F6E20D9
:1040C00064697361626C6564200D0A0063757374C2
:1040D0006F6D5F61707020696E6469636174696F90
:1040E0006E20656E61626C6564200D0A0000000040
:1040F000637573746F6D5F61707020696E6469635E
:104100006174696F6E206F72206E6F746966696387
:104110006174696F6E2064697361626C6564200DFF
:104120000A00000018490A7F41F82200087F401C5D
:104130000877704770B504466078FF2802BFB4F86E
:10414000031001F47F41B1F5406F12D100260E4DEE
:1041500000E0761C297FF0B288420AD2F1B255F80D
:104160002110204688470100F3D002D0022805D054
:1041700006E02046BDE87040FCF7A8B8002070BDFE
:10418000012070BD000000003808002002490160D5
:1041900002490161704700BF5F4200088542000884
:1041A000006040607047EFF3108172B6026882428F
:1041B0000CBF012000201CE0EFF3108272B60368F0
:1041C0000B60486001600868416023E0EFF31082F3
:1041D00072B6086043684B6041604868016019E04E
:1041E000EFF3108172B64268036813600268436897
:1041F000536081F31088704710B5EFF3108472B6E6
:1042000002680A600068FFE7FFF7EAFF84F310889E
:1042100010BD0B6082F310887047000004F030B9C5
:104220006C486D49016001F12002426001F13002E9
:10423000826001F13C02026201F14402426201F13A
:104240004C02C26001F15402026101F1700242614C
:1042500001F1740282618031C16104F02FB938B577
:1042600004465E4D2846FFF79BFF5A484068A16808
:104270000160E168C16085605949416004F03AF924
:1042800058482AE080B553484268136801211972E2
:10429000406804F035F9002002BD38B5514C4F4D4F
:1042A00004E000F041F80098216888472846FFF7AD
:1042B0007AFF0028F5D031BD4A484168084738B533
:1042C0000446494D2846FFF76BFF4248C068A16885
:1042D0000160456004F019F9444821680160616893
:1042E0004160002032BD80B53A48C2681368102191
:1042F0001972C06804F00FF9002002BD35483B4A2E
:10430000C168C16813680868184738B5374C364D1E
:1043100004E000F009F80098616888472846FFF734
:1043200042FF0028F5D031BD69462846FFF764BF3B
:1043300038B504462E4D2846FFF732FF2D48FFF7CB
:104340002FFF24480069A1688160E168C1600561B0
:104350002168016061684160216941616169816131
:1043600031BD80B501462348FFF730FFBDE802406C
:104370000FF2050004F0DFB838B5164C1D4D06E00D
:10438000FFF7D2FF009920690069FFF71FFF284659
:10439000FFF709FF0028F3D031BD10B5164C2046B9
:1043A000FFF7FEFE0B4841690C60BDE8104004F0C9
:1043B000D6B81CB5104C06E069462046FFF71CFF36
:1043C000009800F01BF82046FFF7EDFE0028F3D020
:1043D00013BD000000000320AC090320480A03209D
:1043E00090080320D4080020500A0320DC08002095
:1043F000380A0320CC080020400A03207047704789
:1044000010B57649764C4FF4004008606068400172
:104410000ED56068C0000BD401F06EFA01F06CFAA2
:10442000206840F480302060216821F480312160D0
:1044300000F07FF80020FFF77DF940B180796949ED
:10444000E160E16821F47C5141EA0021E16010BDA6
:1044500010B5654C88B0206820F07000206063487B
:104460000168C1F303200090009830B92168090960
:10447000090141F00401216008E000982168801ED4
:1044800080F30400090940EA01102060002220683E
:1044900040F400402060564801680260CA21026969
:1044A00002F050020261FF225248C1615321C161F2
:1044B0000168C908C9000160C2614F48016841F440
:1044C00000410160FCF7AEFF606E4C49C008C000BF
:1044D00040F0040060660020FDF743FC04F065F83E
:1044E00001210120FCF7A3FFFFF79AFE444A0021B7
:1044F0004FF48010FDF719F8424C0FF27901019149
:1045000004F23C50009069460FF26D0000F096F8FE
:1045100004F25470029004F5C96140F23C500590D9
:104520000391049402A8FFF703FFFFF777FE08B09A
:1045300010BD354881B0016841F4801101603F2110
:10454000006800F48010009000983048416041619C
:10455000016841F47C110160026942F47C1202613D
:10456000016841F03F010160026942F03F020261CF
:1045700001B070477047000038B5044688B06168E4
:1045800001F10B0504A8FDF770F82988B1F5124F69
:1045900022D16846102101F0ABF960680D30007837
:1045A000B0B904F030F80D208DF800007F218DF8AF
:1045B000021017480168090CADF80C106846FDF7A9
:1045C0004DF8FBF7BBFD00210120FCF730FF03E0B5
:1045D000012804BF0020207009B030BD10400058F1
:1045E00090000058FECAFECA1C0400585875FF1FF0
:1045F000800800580828004008000058C00100202A
:104600007F4600083000032050000058040C00587A
:10461000002004E001E0704700BF4FF0FF30FCF7DE
:104620001DBF00214FF48010FCF78CBF0220FCF767
:10463000AFBF0220FCF7B4BF704700007FB50C4647
:104640004D4D61684D4EE8612962284604F0F2F84C
:104650002468746006F10800FFF7A2FD012000F055
:1046600068F801203070296841B10FF2E9000FF2BB
:10467000ED02009001920294684688477FBD1FB505
:104680003E4C04F10800FFF78EFD00BB2178F1B12C
:10469000694604F10800FFF7AFFD3748C16949B129
:1046A0000098029001228DF8042001A888479DF807
:1046B000040000E001202070207818B10098FFF776
:1046C00050FE04E0009904F10800FFF775FD04F1C5
:1046D0000800FFF768FD28B9207818B104F1080038
:1046E000FFF79FFF1FBD2DE9F04105460E4690469E
:1046F0001C46002000F01DF8204F7868A0F80950F3
:10470000C672324641460C30FCF718FD1A4A13694E
:1047100000210020984748F2E800FFF78AFF7968F7
:104720008A78D21C04F10800FCF708FDBDE8F041CE
:1047300001201CB51049124C096A20B901B1884703
:104740000020207013BD0120207011B1BDE81C4075
:10475000084713BD0020FFF769BF000010B50146F0
:10476000064C04F10800FFF731FD04F10800BDE834
:104770001040FFF756BF0000140800207808002002
:1047800021090020144810B5016841F480710160CE
:10479000032001F076FF002004F056F800240028E2
:1047A00014BF012404F07FF8204610BD0B48806838
:1047B00070470B480BE00A48016821F002010160D4
:1047C00070470748016821F00401016070470168E3
:1047D000490849000160704700400058D00200209D
:1047E000042004E0F8B504460025ACB104F1340619
:1047F000307910B9204604F065F80F4F384600F0C4
:1048000021F8386840F001103860204600F007F8C1
:1048100035600120307100E001252846F2BD10B559
:104820000021064A064B00EB8104491C06296360FF
:10483000E261F8D310BD0000000C00588B3F000867
:10484000F3330008002101604FF03F1141603F2128
:104850008160704738B5040009D004F180056868AC
:1048600008B900F01EF800F021F8012801D101205C
:1048700032BDA06A08B100F02AF800F00AF821F071
:104880002A01FFE7816000F01BF8BDE8324000F02C
:1048900076BB2068416821F49041416020688168BE
:1048A000704700212970204604F028B82420686051
:1048B00020680168490849000160204600F0F4B909
:1048C0002068016841F001010160204670472046E0
:1048D00000F0F2BA2DE9FC47054605F18004884650
:1048E000606820281746994644D1B8F1000F14BFDC
:1048F000002F01203FD0207801283BD001212170DA
:1049000005F154060021E1602120606004F080F888
:10491000378077808246A968B1F5805F04BF286937
:1049200000280EBF474640460027002121708046E0
:104930000DE02868B8F1000F12BF18F8011B37F816
:10494000021BC1F3080181627088411E71805346C9
:104950007088CDF8009000280FD0002280212846D2
:1049600000F03BFB0028E4D0032004E0202060603E
:10497000002000E00220BDE8F68700224021284602
:1049800000F02BFB0028F1D0EEE738B500F011F86D
:104990000DD109B1140001D1012032BD0478012CE0
:1049A00005D000F00CF8BDE8384000F06DBB0220E7
:1049B00032BD034603F180008468202C7047012536
:1049C00005700020D866DFF8DC421868A0420BD0E2
:1049D0004068040208D51C6854E8005F45F0806513
:1049E00044E800500028F6D118467047216851E885
:1049F000002F7047206800F1080151E8001F00F106
:104A0000080221F0400142E8001000287047F8B584
:104A1000044640F60F002668F1693268B368084022
:104A200004F15C050ED1880602D5900602D4D800A8
:104A300040F181806969002900F029812046BDE8A4
:104A4000F4400847DFF8A007034204BFDFF89C7773
:104A50003A4270D0CF0707D5D70505D50127376271
:104A60002E6B46F001062E638E0708D5DE0706D5AD
:104A7000276802263E622E6B46F004062E634E0720
:104A800008D5DE0706D5276804263E622E6B46F061
:104A900002062E630E070AD5960601D4034206D0FD
:104AA000266808203062286B40F00800286308055B
:104AB00009D5500107D526684FF400603062286B95
:104AC00040F020002863286B002833D0890607D5E2
:104AD000900601D4D80003D5696909B120468847FA
:104AE000286B21688A68510602D410F0280F1CD068
:104AF000204600F04EFB00F0D1F811D5FFF77AFF09
:104B0000FCD1286A60B10FF2ED618163286A03F07D
:104B1000BBFF00280ED0286A816BBDE8F44008472F
:104B20002046BDE8F24003F0E5BF204603F0E2FF77
:104B300000202863F1BD286901286AD1CF0668D515
:104B4000D00666D51020306200F0A8F82DD5296A6D
:104B50000868406880B20028ECD02A889042E9DAE0
:104B60006880086801688A061BD4FFF73FFF22F4BB
:104B7000807200F08FF8F8D1206800F079FAFBD14C
:104B8000FFF738FFFCD12020E86200202861FFF702
:104B90002DFF22F0100200F07DF8F8D1286A03F012
:104BA0003DFF29886888091A2DE028886988411AFC
:104BB000688800281CBF88B2002868D0226852E8A4
:104BC000003F23F4907342E800300028F6D12068BB
:104BD00000F1080200F1080352E8002FDFF8BC02E0
:104BE000024043E800200028F1D12020E8620020A4
:104BF00028616861226852E8003F23F0100342E810
:104C000000300028F6D12046BDE8F44089B203F018
:104C100072BFC80209D5580207D54FF48010306220
:104C20002046BDE8F24000F025BD080609D5100673
:104C300001D4180205D5A96949B32046BDE8F4405E
:104C40000847480611D550060FD5FFF7CFFE22F0D2
:104C5000400200F01FF8F8D12020A8620020A861CF
:104C60002046BDE8F24001F0A9BC080206D550007C
:104C700004D52046BDE8F24003F03EBFC80148BF5E
:104C8000002A04D52046BDE8F24003F036BFF1BD4E
:104C900022F4F07241E80020002870472068816803
:104CA0004806704700800040F8B50446DFF8480821
:104CB0002168DFF848C80A68DFF844780240A06835
:104CC00002432069024360690243E06902430A60CB
:104CD00000254A68E06822F4405202434A60A36912
:104CE000DFF8202891421CBF206A03438E68DFF85A
:104CF0001808064033438B600FF2A416CB6A606A33
:104D00001B0940EA0313CB626145DFF800084FF44A
:104D1000004339D13F6807F00307032F4DD8DFE880
:104D200007F0024643494FF0010CE169B1F5004F2D
:104D30004FF6F07740F08080BCF1010F09D0BCF154
:104D4000020F0AD0BCF1040F71D0BCF1080F71D072
:104D500099E001F0C6F9002815D0626A616836F85A
:104D60001230B0FBF3F04A0802EB4002B2FBF1F064
:104D700080B2A0F11001B942EAD20740C0F342006C
:104D800007432068C7607FE0914216D13F6817F45F
:104D9000406723D0B7F5806F09D0B7F5006F03D017
:104DA000B7F5406F06D008E04FF0020C07E04FF077
:104DB000040C04E04FF0080C01E04FF0100C91429D
:104DC000B3D1BCF1000F09D0BCF1020F0AD0BCF185
:104DD000040F15D0BCF1080F15D054E001F079F99B
:104DE000002851D0616A36F81120B0FBF2F66268F3
:104DF00002EB42018E4246D31103B14205D242E09A
:104E000001F01DF9ECE71846ECE75008002110EB23
:104E1000062051EB1661002303F070FEA0F54071EF
:104E2000DFF8EC2691422ED22268D0602CE001F00F
:104E300006F990E7184690E7BCF1010F09D0BCF1E4
:104E4000020F09D0BCF1040F18D0BCF1080F18D024
:104E500019E001F046F9B8B1626A36F812306168BB
:104E6000B0FBF3F000EB5100B0FBF1F080B2A0F129
:104E70001001B94207D22168C86005E001F0DFF8EF
:104E8000E9E71846E8E7012504F1680001214180BF
:104E9000018000218160C1602846F2BDFEFFFFEF66
:104EA000010002000400060008000A000C001000C7
:104EB000200040008000000190F82810CA0706D5A5
:104EC00002685368C16A23F400330B43536090F8BF
:104ED00028108A0706D502685368016B23F48033D3
:104EE0000B43536090F828104A0706D502685368B0
:104EF000416B23F480230B43536090F828100A077A
:104F000006D502685368816B23F400430B4353605A
:104F100090F82810CA0606D502689368C16B23F47E
:104F200080530B43936090F828108A0606D50268D8
:104F30009368016C23F400530B43936090F828109E
:104F40004A0610D502685368416C23F480130B4362
:104F50005360416CB1F5801F05D15368816C23F417
:104F6000C0030B43536090F828100A0606D5016869
:104F70004A68C06C22F4002202434A607047F8B5C8
:104F8000044604F180050020E8606FF07E4703F0DE
:104F90003FFD0646206801680A0708D5009733469A
:104FA00000224FF40011204600F017F860B9206885
:104FB00001684A070AD50097334600224FF4800162
:104FC000204600F00AF808B10320F2BD20206860F6
:104FD000A8600020E0662870F2BD2DE9F041069C33
:104FE00005460E4690461F462868C1693140B142C9
:104FF0000CBF01200020404526D114F1010FF3D051
:1050000003F006FDC01B844200D33CB900F025F834
:1050100000F02DF8FCD100F01AF811E028680168C2
:105020004A07E1D5C1690A05DED54FF40062026284
:1050300000F013F800F01BF8FCD100F008F8C16094
:1050400000210170032000E00020BDE8F08105F19F
:1050500080002021416081607047296851E8002F5D
:1050600022F4D07241E800200028F6D17047286869
:1050700000F1080151E8001F490800F10802490049
:1050800042E800100028704770B50346002099657B
:10509000FF2403F15C010A804A8048619868B0F5FA
:1050A000805F04D1186960B940F2FF1409E010B9BB
:1050B000186928B905E0B0F1805F06D1186910B908
:1050C0007F248C8003E03F2000E00020888003F1F3
:1050D00080040020E0602220A060186800F108052C
:1050E00055E8005F00F1080645F0010546E800506C
:1050F0000028F2D18868B0F1005F22D18D89AA42E0
:105100001FD39A68B2F5805F04BF1869002807BFF3
:105110000FF2AD224A610FF2FD10486100202070AD
:10512000196851E8002F42F48072FFF7B3FDF7D100
:1051300000F01FF841F0805100F026F8F8D100206F
:1051400070BD9A68B2F5805F04BF1869002807BF78
:105150000FF2F9024A610FF2AD00486100202070A1
:10516000196851E8002F42F49072FFF793FDF7D1D0
:10517000E5E7186800F1080151E8001F00F1080296
:105180007047DFF89003014042E8001000287047A4
:105190000000026852E8003F23F4907342E80031B7
:1051A0000029F6D1016801F1080201F1080352E873
:1051B000002F0F490A4043E800210029F2D1C16EB7
:1051C000012908D1026852E8003F23F0100342E8A9
:1051D00000310029F6D12021C0F888100021C166D5
:1051E000016770470000000001000010200100046A
:1051F000FEFFFFEF806A00F1560100220A810A805B
:1052000003F078BC10B500F04BF81AD14B6A9188C6
:105210000B40816D0B70816D4B1C00F03BF8A1B908
:1052200000F044F800F060F8FCD100F056F807D127
:105230000023136100F044F844BF10240C6260E0C6
:1052400064E0886940F00800886110BD10B500F086
:1052500027F81AD14B6A91880B40816D0B80816DC4
:105260008B1C00F017F8A1B900F020F800F03CF812
:10527000FCD100F032F807D10023136100F020F8D0
:1052800044BF10240C623CE040E0886940F0080014
:10529000886110BD836551884B1E538051887047CB
:1052A00000F15C020168D36A222B7047036853E85F
:1052B000004F24F4907443E800410029F6D1704770
:1052C000036853E8004F24F0100443E8004100292C
:1052D000F6D10168CB69DC0670472021D16200213C
:1052E0005161116901297047016801F1080353E810
:1052F000003F5B0801F108045B0044E8003100292D
:1053000070471188BDE8104003F0F5BBBDE81040C0
:1053100001F041B92DE9F84300F0A9F847D1A0897F
:1053200078B96088002844D0A189884241DA00F029
:10533000ABF87948606100F0BDF83AE0304601F022
:105340002AF9A806EDD500F08CF80870B06D411C64
:1053500000F0F7F819D0E90748BF5FEAC95101D555
:1053600000F0F8F8A80703D5F80701D500F0DAF83F
:10537000680703D5F80701D500F094F8206B20B139
:10538000304603F0B7FB0021216360880028D8D1A4
:1053900000F09AF800F0CEF8D0D100F0E2F844BF67
:1053A000102202622188304603F0A5FBC9E700F015
:1053B00002F8BDE8F183816941F00801816170471D
:1053C0002DE9F84300F053F847D1A08978B96088F7
:1053D000002844D0A189884241DA00F055F84F48AE
:1053E000606100F067F83AE0304601F0D4F8A806B2
:1053F000EDD500F036F80880B06D811C00F0A1F802
:1054000019D0E90748BF5FEAC95101D500F0A2F8F9
:10541000A80703D5F80701D500F084F8680703D57D
:10542000F80701D500F03EF8206B20B1304603F0BC
:1054300061FB0021216360880028D8D100F044F886
:1054400000F078F8D0D100F08CF844BF102202624E
:105450002188304603F04FFBC9E7FFF7ACFFBDE8FA
:10546000F1833068406AB16D08EA00007047064673
:1054700006F15C043068B4F80480C569D0F8009087
:105480008768E16A22297047306800F1080151E815
:10549000001F00F1080221F0805142E800100028AE
:1054A000F2D17047316804200862206B40F002009E
:1054B00020637047316851E8002F42F0200241E834
:1054C00000200028F6D17047316851E8002F22F4FF
:1054D000807241E800200028F6D1306800F1080110
:1054E00000F1080251E8001F0D48014042E8001099
:1054F0000028F2D170470000F369FFCF0038014067
:105500008800005800800040FFF4FF110024F400E0
:1055100000FD0F00FEFF7FEF055200084D5200080E
:10552000FEFFFFEF316802200862206B40F00400AC
:10553000206370472020E06200206061206901281C
:105540007047B1656088411E61803068C56915F09B
:10555000070F704701210162206B40F001002063BA
:10556000704700212161316851E8002F22F01002BC
:1055700041E800200028F6D13068C169CA067047AA
:1055800010B500F180010A78012A01D1022010BD76
:1055900001230B7024224A600268136814686408AF
:1055A000640014600022426623F000530068036028
:1055B000202048600020087010BD70B500F01EF873
:1055C00001D1022070BD00F01FF822F0604209E016
:1055D00070B500F013F801D1022070BD00F014F88E
:1055E00022F0606211438160204600F01AF82068C2
:1055F0000660202068600020287070BD044604F119
:10560000800528780128704701222A7024206860CC
:1056100020680668026852085200026020688268AA
:10562000704730B5416E11B90121012214E00168C3
:105630000FF230048A6889680FF23003520E02F0CC
:105640000702490F655CA45C595C9A5CED00E400BC
:1056500095FBF1F194FBF2F268304180028030BD9D
:10566000000000000101010307010000080402041A
:10567000080101017047000038B5040044D094F8D7
:10568000210028B9002184F82010204603F08DF96C
:1056900000F049F8FF2510B100F03FF834E0216830
:1056A000DFF8B0008A6802408A6021688A6863680F
:1056B00020690343A06903431A438A602168E068B4
:1056C000086120680169A26841EA0241016120681D
:1056D000C16821F08001C1602068C16C890889001F
:1056E000C1642168CA6CE369606903431A43CA64F0
:1056F00020688168880609D400F020F830B120685D
:105700004562042100F01FF8012032BD2068456287
:10571000012184F82110002032BD20684562042157
:1057200084F821107047022084F82100CA202168E3
:105730004862532022685062204626E020460BE053
:105740002068C0F8248084F82110002084F820000C
:1057500070470000BFFF8FFF70B5044640F2E93686
:105760002068C16821F0A001C16003F051F905462D
:105770002068C168880606D403F04AF9401BB0428D
:10578000F6D3032070BD002070BD70B504462068BC
:10579000C1684A0612D44FF0FF32C26040F2E936C7
:1057A00003F036F905462068C168480606D403F0C0
:1057B0002FF9401BB042F6D3032070BD002070BD0E
:1057C00010B5040001D1012010BD607A20B900217C
:1057D0002172204603F0FEF80220607221680A68F8
:1057E000606822F0200202430A602068016841F0EC
:1057F00004010160012060720020E06010BD000023
:1058000010B540290DD3364C21706060FCF722F9A9
:105810000020607000F066F80020FCF7ACF8002073
:1058200010BD012010BD1CB52D4C6178227891422D
:1058300054D2626850546178491C0A28617048D17A
:10584000C8B2022811D96068C9B2084410F8021D14
:105850000D290AD1002242706068617808440A224A
:1058600000F8022C6078411E617060686278411E09
:10587000002088546078411E61706168087848B9DA
:10588000012101E0491CC9B26268505C521E002827
:105890005054F7D161786068012914D9014604F1A8
:1058A0000800FDF7ABFB4020FCF765F82178606845
:1058B000FCF7D0F80020607004F10800FCF7A4F8B1
:1058C00000F010F808E02178FCF7C4F800206070C0
:1058D00000E00020FCF74FF8002016BD012016BDA7
:1058E0005C060020402104F1080000F001B800002F
:1058F000002203F01BBA00000248016841F48071E5
:1059000001607047000400584FF0B040006800F09C
:10591000F000B02888BFB02070472DE9F0410400A6
:1059200054D0207881064FF0B04538D5A868E96892
:1059300010F00C0001F0030103D00C2808BF01296E
:1059400046D12868800702D5E06900283ED0FFF7DD
:10595000DBFF616A884207D2084600F0D3FB0028CB
:1059600034D100F075FA0FE0286820F0F000014310
:1059700029606968206A21F47F4141EA0021696059
:10598000606A00F0BFFB08BB00F095FBDFF8101861
:105990000860DFF81008006802F056FFB0B9207800
:1059A000C1070DD5A868E96800F00C00082801F0CF
:1059B000030103D00C2808BF03292DD128688003D8
:1059C00040F139816068002840F03581012038E2DB
:1059D000E06980B1296841F0010100F047FA06460C
:1059E0002868800700F1248103F012F8801B032847
:1059F000F6D3032025E2286840084000286003F021
:105A000007F80646286800F01FFAC8D003F000F82F
:105A1000801B0328F6D3ECE76068B0F5803F04D123
:105A2000296841F48031296003E02A6822F4803239
:105A30002A60606860B102F0EBFF064628688003C8
:105A400000F1F98002F0E4FF801B6528F6D3D0E76F
:105A500002F0DEFF06462868400C10F0010000F05E
:105A6000EA8002F0D5FF801B6528F4D3C1E702F07D
:105A7000CFFFC01B0328C0F01281BAE7E06878B1FD
:105A8000296841F4807100F0F1F906462868400564
:105A900000F1188102F0BCFF801B0328F6D3A8E7B1
:105AA000286820F48070286002F0B2FF064628685B
:105AB000800A10F0010000F0DC8002F0A9FF801BDA
:105AC0000328F4D395E702F0A3FFC01B0328C0F01E
:105AD0000B818EE740F0010000F0CEF907467068B8
